:100000000C941802CF93DF9300D000D0CDB7DEB7A9
:1000100087E690E0A0E0B0E089839A83AB83BC835D
:1000200089819A81AB81BC81892F9A2FAB2FBB2705
:1000300025EC30E0F901808384EC90E02981FC011B
:10004000208381EC90E028E1FC01208300000F90E8
:100050000F900F900F90DF91CF910895CF93DF9382
:100060001F92CDB7DEB78983000080EC90E0FC01E1
:100070008081882F90E080729927892BB1F386ECDC
:1000800090E02981FC01208380E090E00F90DF91D7
:10009000CF910895CF93DF9300D0CDB7DEB79A8389
:1000A0008983000080EC90E0FC0180818823D4F7F4
:1000B00086EC90E0FC018081882F90E00F900F90FB
:1000C000DF91CF910895CF93DF93CDB7DEB76B97D4
:1000D0000FB6F894DEBF0FBECDBF988F8F8B698FA0
:1000E0004A8F2B8F81E089831B821A821E821D8298
:1000F0008FEF8C83898D823081F48B8D882369F01A
:100100008EEB98E1892F8F938EEB98E18F930E946D
:100110006B030F900F9080E070C08B8D853668F078
:1001200085EF98E1892F8F9385EF98E18F930E9457
:100130006B030F900F9080E060C01B821A820EC08C
:100140008A819B8102960E9402098C838C8188237C
:1001500059F08A819B8140969B838A838A819B8107
:100160008115944068F301C000008C81882311F050
:1001700080E043C08A819B819E838D831B821A828B
:100180008A819B8102960E9402098C838A819B81CD
:1001900040969B838A839C818981981729F4898161
:1001A0008F5F89831B821A828A819B81811594408B
:1001B00020F48981853620F301C000008D819E8165
:1001C000892F99278F83898D8887898189878A8D4F
:1001D0008A878B8D8B872F89388DCE010796059660
:1001E000B9010E94F9022A813B81CE01079640E1C4
:1001F00050E0B9010E940A0989816B960FB6F89404
:10020000DEBF0FBECDBFDF91CF910895CF93DF93B7
:1002100000D000D000D01F92CDB7DEB78D837F8392
:100220006E831B821A8219828FEF8C838E819F814D
:10023000892B19F48EEF9FEF2BC08981882F90E0D6
:1002400002962A813B81820F931F0E9402098C83B0
:100250009C818D81981721F08981805F8983EDCF02
:1002600000009C818D81981719F08FEF9FEF10C0CF
:100270008981882F90E02A813B81280F391F8E8148
:100280009F8140E150E0B9010E94F20880E090E0D7
:1002900027960FB6F894DEBF0FBECDBFDF91CF918A
:1002A0000895CF93DF93CDB7DEB767970FB6F89475
:1002B000DEBF0FBECDBF8F8B1A8219821C821B82BC
:1002C000CE010796BC018F890E9406019C838B8317
:1002D0008B819C81892B81F0809104019091050193
:1002E0009C0141E250E061E070E08AE299E10E9405
:1002F0003B038FEF9FEF17C08F81882F90E0889688
:100300009695982F8827979587959E838D838D81C5
:100310009E81969587959A83898389819A81FC012C
:10032000099580E090E067960FB6F894DEBF0FBEA7
:10033000CDBFDF91CF910895CF93DF93CDB7DEB7D7
:10034000CA56D1090FB6F894DEBF0FBECDBF9E01CD
:1003500029593F4FF90191838083CE0187599F4FDF
:10036000FC01718360831A8219828091000190914F
:1003700001010E944A00482F9E012D5F3F4F898155
:100380009A81820F931FFC0140839E012D5F3F4F96
:1003900089819A81820F931FFC0180818D30F1F059
:1003A00040910201509103019E012D5F3F4F8981D1
:1003B0009A81820F931FFC018081082E000C990BFB
:1003C000BA010E940B0389819A8101969A838983DD
:1003D00089819A818436910540F201C00000CE01E6
:1003E00087599F4FFC0121812F93FC0180818F93BE
:1003F000CE0189599F4FFC0121812F93FC018081FF
:100400008F93CE010396292F2F938F930E949003F1
:100410000F900F900F900F900F900F90C659DF4FD5
:100420000FB6F894DEBF0FBECDBFDF91CF91089518
:100430000C944C020C9400000C9400000C940000EE
:100440000C9400000C9400000C9400000C9400002C
:100450000C9400000C9400000C9400000C9400001C
:100460000C9400000C9400000C9400000C9400000C
:100470000C9400000C9400000C9400000C940000FC
:100480000C9400000C9400000C9400000C940000EC
:080490000C9400000C94000024
:0C04980011241FBECFEFD8E0DEBFCDBFA7
:0804A4000E9456020C94E402D0
:1004AC00CF93DF93CDB7DEB76C970FB6F894DEBF62
:1004BC000FBECDBF2EE0CE010196FC01322F119262
:1004CC003A95E9F782E08C838EE290E09A878987EF
:1004DC002EE0CE010F96FC01322F11923A95E9F7DE
:1004EC0081E08A8B8AE490E09A8F898FCE01019605
:1004FC009093030180930201CE010F96909301011A
:10050C00809300010E94020086E998E1892F8F9365
:10051C0086E998E18F930E946B030F900F9088EA05
:10052C0098E1892F8F9388EA98E18F930E946B034F
:10053C000F900F900E94000C80E090E06C960FB62C
:0E054C00F894DEBF0FBECDBFDF91CF910895B2
:10055A002F923F924F925F926F927F928F929F92C9
:10056A00AF92BF92CF92DF92EF92FF920F931F93B7
:10057A00CF93DF93CDB7DEB7CA1BDB0B0FB6F89468
:10058A00DEBF0FBECDBF09942A88398848885F84A8
:10059A006E847D848C849B84AA84B984C884DF8019
:1005AA00EE80FD800C811B81AA81B981CE0FD11DFD
:0E05BA000FB6F894DEBF0FBECDBFED01089561
:0405C800F894FFCFD5
:1005CC0011E0A0E0B1E0E0E0F1E002C005900D9296
:1005DC00A030B107D9F721E0A0E0B1E001C01D9235
:0605EC00A030B207E1F7A8
:1005F200FB01DC0105900D920020E1F70895FB015B
:10060200DC010D900020E9F7119701900D92002076
:10061200E1F708950F931F93CF93DF93182F092FBC
:10062200EB018B8181FD09C01FEF0FEF812F902F0E
:10063200DF91CF911F910F91089582FF14C02E81F7
:100642003F818C819D81281739073CF4E881F9812B
:10065200CF0101969983888310838E819F810196B1
:100662009F838E83E3CFE885F985812F0995892BB6
:10067200A1F3DACFB0E0A0E0E1E4F3E00C94B3023E
:100682005B014A017901D90113962C91D0E0C0E0B7
:1006920021FF1AC0C815D905B9F08C016C01CA0C2A
:1006A200DB1C0CC00F5F1F4FD7011896ED91FC9118
:1006B200B701DC018C910995892B31F4C8010C1525
:1006C2001D0581F72196E6CFCE01CDB7DEB7ECE06E
:1006D2000C94CF02B0E0A0E0E1E7F3E00C94BB029F
:1006E200AE01495F5F4FDA016D917D91AD0100E08E
:1006F20011E0F80182819381DC0113962C9113970A
:10070200286013962C930E94A903D8011296ED91AA
:10071200FC912381277F2383E4E00C94D702AEE08F
:10072200B0E0E6E9F3E00C94BD028DE08C838B89A6
:100732009C899A838983AE01495E5F4F6D897E8968
:10074200CE0101960E940E072E96E2E00C94D90289
:10075200ABE0B0E0EFEAF3E00C94AD027C013B01C8
:100762008A01FC0117821682838181FFC8C1CE01F2
:1007720001965C01F7019381F30193FD859193FF4B
:1007820081913F01882309F453C1853239F493FDE5
:10079200859193FF81913F01853229F4B70190E061
:1007A2000E940B03E7CF912C212C312CFFE1F31592
:1007B20038F08B3211F190F4803209F1833229F151
:1007C20037FC3CC020ED280F2A3050F536FE20C001
:1007D2008AE0989E200D1124922E06C08D3291F04F
:1007E200803371F7689430F8F30193FD859193FF9C
:1007F20081913F018111DACF21C0689431F8689468
:1008020032F8F2CF689433F8EFCF689434F8ECCF33
:10081200EAE02E9E200D1124222E689435F8E4CFB2
:100822008E3229F436FC04C1689436F8DDCF8C365A
:1008320019F4689437F8D8CF8836B1F2982F9F7D93
:1008420095549330E0F08336A1F18337C1F18335BB
:1008520009F063C02801F2E04F0E511CF801C0807C
:10086200D180692D70E036FC02C06FEF7FEFC601C8
:100872000E9427084C01689437F882010AC00C5F75
:100882001F4FFFE3F98388248394912C6501E89438
:1008920037F833FE2DC0522C8114910471F5552086
:1008A20009F468CFB70180E290E00E940B035A94EA
:1008B200F6CFF801808189830E5F1F4FE4CF2801B4
:1008C200F2E04F0E511CF801C080D180692D70E01A
:1008D20036FC02C06FEF7FEFC6010E9432084C0166
:1008E2008201D5CFB70180E290E00E940B032A94E7
:1008F2002814190409F0B0F7CECFF60137FC859120
:1009020037FE81916F01B70190E00E940B035110F5
:100912005A94F1E08F1A9108BFCF843619F08936C4
:1009220009F077C0F80137FE6BC060817181828166
:1009320093810C5F1F4FF32DFF763F2E97FF09C067
:1009420090958095709561957F4F8F4F9F4F6894DA
:1009520037F82AE030E0A5010E949108C82ECA1893
:100962008C2C432C36FE0CC0E89440F8C91440F499
:1009720034FE05C032FC03C0F32DFE7E4F2E892CBF
:1009820044FE95C0FE01EC0DF11D8081803309F01B
:1009920087C0242D297E422E842D8870582E43FC38
:1009A20095C040FE8FC09C2C821418F42C0C922C03
:1009B200981844FE91C0B70180E390E00E940B03B7
:1009C20042FE09C088E790E041FE02C088E590E05F
:1009D200B7010E940B03C91408F48AC0CA94D12C2F
:1009E2009FEFC91AD90ACA0CDB1CF60182916F016A
:1009F200B70190E00E940B03AC14BD04B1F74FCFD6
:100A020060817181072E000C880B990B0E5F1F4FBE
:100A120092CFD32CE894D4F82AE030E0853739F12C
:100A2200232D297FD22E8F3601F148F48835A9F083
:100A3200F701868197812B96E2E10C94C9028037F7
:100A420049F08837A9F7D4FE02C06894D2F820E1B1
:100A520030E00DC06894D4F8F6CF34FE03C0822F84
:100A62008660D82E20E132E002C028E030E0F801B2
:100A7200D7FE0FC060817181828193810C5F1F4F0D
:100A8200A5010E949108C82ECA183D2CE89437F897
:100A920067CF6081718190E080E00E5F1F4FF0CFE1
:100AA20042FC02C0839478CF8394839475CF842DC3
:100AB200867809F471CFF6CFB70180E290E00E9408
:100AC2000B0383948214C0F3512C73CF522C581809
:100AD200821408F46ECFF8CF842D867809F47BCF88
:100AE2008BE241FE80E247FC8DE2B70190E071CFDC
:100AF200B70180E390E00E940B039A946CCF8FEFD2
:100B02009FEF99CF20FD09C0FC0123FD05C022FF04
:100B120002C07383628351834083089544FD17C0EA
:100B220046FD1DC0DB01FC01AA0FBB1FEE1FFF1F0C
:100B32001094D1F76A0F7B1F8E1F9F1F660F771FBE
:100B4200881F991F620F711D811D911D089533E049
:100B5200660F771F881F991F3150D1F7F3CF34E00A
:100B6200F7CF0F931F93CF93DF938C01C8010E949D
:100B72003D08EC0197FD08C00E941308892BB1F7CC
:100B8200B801CE010E947908CE01DF91CF911F9169
:100B92000F9108958F929F92AF92BF92EF92FF9220
:100BA2000F931F93CF93DF938C01D62F7A01B22E2E
:100BB2000E943D089C0133272B32310529F02D324A
:100BC2003105A9F46894B7F8D15061F480E0DF915F
:100BD200CF911F910F91FF90EF90BF90AF909F9098
:100BE2008F900895C8010E943D0897FDEFCFCB2D4D
:100BF200CD7F2B2D2073F9F48033E9F4AA24AA9433
:100C0200AD0E89F0C8010E943D0897FD0CC0282F47
:100C12002F7D283561F4C264D25029F0C8010E94A8
:100C22003D0897FF08C0812C912C54011BC0B6FED1
:100C32002BC0C260DA2D812C912C540120ED280F9B
:100C4200283028F1C4FD09C02A3008F1C6FF05C0CA
:100C52002F7D3FEE320F3630C8F0B8010E9479087E
:100C6200C1FFB4CFC7FF08C0B094A0949094809401
:100C7200811C911CA11CB11C2C2FB501A401C70120
:100C82000E94830581E0A3CFC261D4CF27504C2FAD
:100C9200C501B4010E948F054B015C01C260D150B5
:100CA20009F3C8010E943D0897FFC8CFD9CFA0E23F
:100CB200B0E0EEE5F6E00C94B2025C01962E7A0109
:100CC200CE0101966C0180E2F60111928A95E9F754
:100CD200F501B381890130E020E0712C812CA0E084
:100CE20041E050E0F801B3FD8591B3FF8191982F67
:100CF2008F01811107C010E000E0C801A096EDE06D
:100D02000C94CE028E3519F42115310541F1A2174A
:100D120013064CF48D3549F18D3229F4811006C049
:100D2200882483941DC0882009F464C0E92FE695C5
:100D3200E695E695EC0DFD2DF11D892F8770BA0120
:100D420001C0660F8A95EAF78081682B6083791665
:100D520051F0971510F49F5FE9CF9150E7CFA1E0D2
:100D62002F5F3F4FBFCF812CFBCF882019F08E81A0
:100D720080628E83AA2359F0F6019E012F5D3F4FB8
:100D82008081809580833196E217F307C9F7882422
:100D92008394C5010E943D0897FD16C0E82FE69591
:100DA200E695E695EC0DFD2DF11D208130E0AC01BC
:100DB2004770552702C0359527954A95E2F720FDE1
:100DC20006C0B5010E947908882069F094CFE11429
:100DD200F10429F0F7018083C70101967C019A94FE
:100DE200812C9110D6CFE114F10409F486CFF701DA
:100DF200108283CFE82FE695E695E695EC0DFD2D62
:100E0200F11D982F9770BA0101C0660F9A95EAF703
:100E12009081692B6083782EA3CFB0E0A0E0E4E15B
:100E2200F7E00C94B0026C01EB015A01FC0117824D
:100E32001682512CF601E380FE01E3FC8591E3FE6C
:100E42008191182FEF018823E9F090E00E941308A6
:100E5200892B21F0C6010E94B205ECCF153241F474
:100E6200FE01E3FC1591E3FE1191EF01153269F4E5
:100E7200C6010E943D0897FD8EC01817D9F2B6012F
:100E82000E947908852D90E08AC000E01A3231F480
:100E9200E3FC1591E3FE1191EF0101E0F12C20ED4D
:100EA200210F2A3048F101FF37C0FF2059F31836CD
:100EB200B1F11C3609F43DC0112321F3612F70E01A
:100EC20087E799E10E941C08892BE1F2912C812C81
:100ED20000FD06C0F50180809180C50102965C018B
:100EE2001E3679F5F6014681578170E060E0202FC9
:100EF200C4010E9483059ECF02606F2D70E090E0D6
:100F020080E040E20E948F05F62EFE01E3FC15917F
:100F1200E3FE1191EF01C3CFFF24FA94C8CFFE0183
:100F2200E3FC1591E3FE1191EF01183609F0C4CFED
:100F320008600460FE01E3FC1591E3FE1191EF01EC
:100F4200BBCF1336C1F401FD02C0FF24F394C601E6
:100F52000E943D0897FD1FC08114910429F0F401FD
:100F62008083C40101964C01FA94F110F0CF00FD88
:100F720061CF53945FCF1B35B9F49E01A4016F2D4D
:100F8200C6010E945806EC01892B89F7F60183817C
:100F9200807309F477CF8FEF9FEF511073CFCDB7E6
:100FA200DEB7EFE00C94CC02C6010E94B20597FDB9
:100FB200F2CF1F36A9F130F4143641F0193639F068
:100FC200006405C01337B9F01537D1F70062202F3E
:100FD200A4016F2DC6010E94CB058111C8CFD6CFC7
:100FE2008114910429F0F4016082C40101964C013C
:100FF200FA94FF2071F0C6010E943D083C0197FD62
:1010020008C00E941308892B59F3B601C3010E943C
:1010120079088114910409F4AACFF4011082A7CFB0
:101022000061D5CF91110C94EF08803219F08950EC
:101032008550C8F70895FC010590061621F000209E
:10104200D9F7C00108953197CF010895FC010590A9
:10105200615070400110D8F7809590958E0F9F1FB8
:101062000895FC016150704001900110D8F78095FD
:1010720090958E0F9F1F0895CF93DF93EC012B81E4
:1010820020FF1AC026FF0CC02F7B2B838E819F81ED
:1010920001969F838E838A8190E0DF91CF9108959C
:1010A20022FF18C0E881F9818081082E000C990B7B
:1010B200009729F420622B838FEF9FEFEECF3196BA
:1010C200F983E8832E813F812F5F3F4F3F832E8339
:1010D2009927E3CFEA85FB85099597FFF3CF2B810B
:1010E200019621F080E2822B8B83E6CF80E1FBCF59
:1010F200FB01238120FF11C026FD0FC08F3F9807FF
:1011020071F082832F7D20642383268137812150D1
:10111200310937832683992708958FEF9FEF08952A
:10112200FA01AA27283051F1203181F1E8946F9316
:101132006E7F6E5F7F4F8F4F9F4FAF4FB1E03ED0BC
:10114200B4E03CD0670F781F891F9A1FA11D680F5A
:10115200791F8A1F911DA11D6A0F711D811D911D8D
:10116200A11D20D009F468943F912AE0269F112402
:101172003019305D3193DEF6CF010895462F477066
:10118200405D4193B3E00FD0C9F7F6CF462F4F70C1
:10119200405D4A3318F0495D31FD4052419302D01F
:1011A200A9F7EACFB4E0A6959795879577956795C5
:1011B200BA95C9F700976105710508959B01AC01C5
:1011C2000A2E06945795479537952795BA95C9F7EC
:1011D200620F731F841F951FA01D089599278827EA
:1011E2000895DC01CB01FC01F999FECF06C0F2BDE6
:1011F200E1BDF89A319600B40D9241505040B8F7D3
:101202000895F999FECF92BD81BDF89A992780B5CC
:101212000895DC01CB0103C02D910E9415094150B4
:101222005040D0F70895262FF999FECF1FBA92BDEC
:1012320081BD20BD0FB6F894FA9AF99A0FBE0196B5
:0212420008950D
:10124400CF93DF9300D000D000D0CDB7DEB78C832E
:101254007E836D838C81882F90E08230910551F0DC
:101264008330910581F00197D1F40E94020080E05F
:1012740090E017C08D819E81FC0180810E942E0028
:1012840080E090E00EC080E090E00E944A008B83F2
:10129400CE0103969A83898389819A8102C080E072
:1012A40090E026960FB6F894DEBF0FBECDBFDF9157
:0412B400CF91089539
:10140000CF93DF93CDB7DEB788E599E1892F8F932E
:1014100088E599E18F930E946B030F900F9080E015
:0814200090E0DF91CF910895E7
:10180000CF93DF93CDB7DEB7CD52D1400FB6F8946A
:10181000DEBF0FBECDBF1A82CE018A599F4F2FE285
:10182000FC012083CE018A599F4FFC01118281E087
:10183000898389810E945101CE018A599F4F292FA6
:101840002F938F938CE499E1892F8F938CE499E106
:101850008F930E946B030F900F900F900F90CE010B
:101860000296BC0182E599E10E949C019E012E5FD7
:101870003F4FCE018A599F4FB9010E94000385E571
:1018800099E1892F8F9385E599E18F930E946B03EE
:061890000F900F90D1CF74
:101896004D434F53207665722E20312E302E300A5E
:1018A6000D00494E464F3A2053797374656D207288
:1018B60065616479210A0D004552524F523A204320
:1018C600616E6E6F742063726561746520646972FF
:1018D6006563746F7279206F662073697A65206715
:1018E600726561746572207468616E2030210045EE
:1018F60052524F523A2043616E6E6F742063726586
:10190600617465207370616365206F66206D6F7208
:1019160065207468616E2061203130302070616707
:10192600657321004552524F523A20556E61626CE2
:101936006520746F206C6F63617465207468652020
:1019460066696C652E002573243E20002573000A07
:101956000D0048656C6C6F2066726F6D207468654B
:1019660020746573742070726F6772616D210A0D41
:011976000070
:0C1977006364696E6F70737578585B00D4
:00000001FF
