:1000000000020000000000000000000000000000EE
:10001000000201000064657600000000000000009E
:10002000000202010062696200000000000000009E
:1000300000020302006C6962000000000000000082
:100040000002040000757372000000000000000050
:10005000000205040062696E00000000000000005C
:1000600000000601017465737400000000000000C8
:10007000FFFFFFFFFFFFFFFFFFFFFFFFFFFFFFFF90
:10008000FFFFFFFFFFFFFFFFFFFFFFFFFFFFFFFF80
:10009000FFFFFFFFFFFFFFFFFFFFFFFFFFFFFFFF70
:1000A000FFFFFFFFFFFFFFFFFFFFFFFFFFFFFFFF60
:100400000C94A007CF93DF93CDB7DEB7A7970FB6B5
:10041000F894DEBF0FBECDBF2EE0CE010196FC01E9
:10042000322F11923A95E9F782E08C8389E992E0C4
:100430009A8789872EE0CE010F96FC01322F119208
:100440003A95E9F781E08A8B85EB92E09A8F898F64
:10045000CE0101969093050180930401CE0101968F
:100460009093070180930601CE010F9690930301AC
:1004700080930201CE014D9623E539E5FC013183DD
:10048000208323E530E0FC01338322830E946D0248
:1004900088E29BE2892F8F9388E29BE28F930E94F0
:1004A000EC080F900F908AE39BE2892F8F938AE3E9
:1004B0009BE28F930E94EC080F900F90CE014D9617
:1004C0000E94141480E090E0A7960FB6F894DEBF67
:1004D0000FBECDBFDF91CF910895CF93DF9300D0B2
:1004E00000D0CDB7DEB787E690E0A0E0B0E089832A
:1004F0009A83AB83BC8389819A81AB81BC81892F2C
:100500009A2FAB2FBB2725EC30E0F901808384ECD8
:1005100090E02981FC01208381EC90E028E1FC013E
:10052000208300000F900F900F900F90DF91CF91DC
:100530000895CF93DF931F92CDB7DEB78983000074
:1005400080EC90E0FC018081882F90E080729927F8
:10055000892BB1F386EC90E02981FC01208380E0B7
:1005600090E00F90DF91CF910895CF93DF9300D06B
:10057000CDB7DEB79A838983000080EC90E0FC0160
:1005800080818823D4F786EC90E0FC018081882F5D
:1005900090E00F900F90DF91CF910895CF93DF936C
:1005A000CDB7DEB76B970FB6F894DEBF0FBECDBFE9
:1005B000988F8F8B698F4A8F2B8F81E089831B8265
:1005C0001A821E821D828FEF8C83898D823081F486
:1005D0008B8D882369F080E59BE2892F8F9380E5DE
:1005E0009BE28F930E94EC080F900F9080E070C008
:1005F0008B8D853668F087E89BE2892F8F9387E89B
:100600009BE28F930E94EC080F900F9080E060C0F7
:100610001B821A820EC08A819B8102960E94730EF1
:100620008C838C81882359F08A819B8140969B839F
:100630008A838A819B818115944068F301C0000000
:100640008C81882311F080E043C08A819B819E8346
:100650008D831B821A828A819B8102960E94730E6F
:100660008C838A819B8140969B838A839C8189812C
:10067000981729F489818F5F89831B821A828A8166
:100680009B818115944020F48981853620F301C037
:1006900000008D819E81892F99278F83898D88877E
:1006A000898189878A8D8A878B8D8B872F89388D61
:1006B000CE0107960596B9010E942A082A813B813E
:1006C000CE01079640E150E0B9010E947B0E89817E
:1006D0006B960FB6F894DEBF0FBECDBFDF91CF9102
:1006E0000895CF93DF93CDB7DEB761970FB6F89437
:1006F000DEBF0FBECDBF8F87798B688B80E098E718
:100700009E838D831A8219828FEF8B8388899989C2
:1007100098878F8388899989892BE1F48EEF9FEFE1
:100720004DC02D813E8189819A81820F931F02964F
:100730009A87898789859A85FC0184918B878B8527
:100740008B839B818F85981759F089819A81409678
:100750009A83898389819A818115944010F301C01D
:1007600000009B818F85981719F08FEF9FEF26C0AF
:100770001C821FC02D813E8189819A81280F391FDB
:100780008C81882F90E0820F931F9D878C878C85AA
:100790009D85FC0184918E874E858C81882F90E009
:1007A0002F813885820F931FFC0140838C818F5FDE
:1007B0008C838C818031F0F280E090E061960FB6FE
:1007C000F894DEBF0FBECDBFDF91CF910895CF93D8
:1007D000DF93CDB7DEB7C059D1090FB6F894DEBFAD
:1007E0000FBECDBF9E0125573F4FF90191838083F6
:1007F000CE0183579F4FFC0171836083CE018157E7
:100800009F4FFC015183408380E098E79C878B8752
:100810001A821982CE0181579F4FFC0180819181FC
:100820009E878D871B821C821E821D82CE01875768
:100830009F4F2FE230E0FC013183208318861F8216
:100840008FEF9FEF9A878987CE0183579F4FFC01D7
:1008500020813181CE014996B9010E944A089E014A
:1008600027573F4FCE0183579F4FFC0180819181D5
:10087000B9010E944108892B19F480E090E0A8C0DA
:100880009E0127573F4FCE014996B9010E9431087A
:100890009E838D8396C01A8219821C828D819E81CF
:1008A000FC018081882309F074C0CE0187579F4FD7
:1008B000BC0180E090E00E9431089E838D8381C05E
:1008C0002B853C8589819A81820F931F0396988B93
:1008D0008F878F859889FC018491898B89898A8B80
:1008E00018861F8222C02B853C8589819A81280F1A
:1008F000391F8F819885820F931F05969F8B8E8B52
:100900008E899F89FC018491888F888D482F9E0154
:1009100023583F4F8F819885820F931FFC0140839E
:100920008F819885019698878F838F8198850B9703
:10093000D4F2CE0183589F4FFC0113869E012358A9
:100940003F4F8D819E81B9010E944108892BE1F4BE
:100950009A898B819817C1F42B853C8589819A816E
:10096000820F931F02969C8B8B8B8B899C89FC0139
:1009700084918D8B8D89882F90E09A8789878985CE
:100980008B8381E08C830BC089819A8140969A8306
:10099000898389819A818115944008F491CF8C8153
:1009A000882329F48FEF9FEF9A8789870FC0CE01A4
:1009B00087579F4FBC0180E090E00E9431089E83E2
:1009C0008D838D819E81892B09F065CF89859A85DC
:1009D000C057DF4F0FB6F894DEBF0FBECDBFDF911B
:1009E000CF910895CF93DF93CDB7DEB7ED970FB6D4
:1009F000F894DEBF0FBECDBF9DAF8CAF80E098E70F
:100A000098878F831A82198282E090E09E838D837B
:100A10008CAD9DAD0E945108FC019E01205E3F4FB0
:100A20008CAD9DADA901BC01CF010E94E7039A875F
:100A3000898789859A8599231CF48FEF9FEF3EC1A2
:100A40008CEB9BE2892F8F938CEB9BE28F930E9420
:100A5000EC080F900F908DEC9BE2892F8F938DEC1B
:100A60009BE28F930E94EC080F900F901F921F92B1
:100A700088EF9BE2892F8F9388EF9BE28F930E94F0
:100A8000EC080F900F900F900F901F921F9283E031
:100A90009CE2892F8F9383E09CE28F930E94EC0865
:100AA0000F900F900F900F90E5C02F8138858981AE
:100AB0009A81820F931F03969C878B878B859C85D9
:100AC000FC0184918D878D85882F90E09F878E878C
:100AD0002F81388589819A81820F931F0296998B85
:100AE000888B88899989FC0184918A8B8A89882FCF
:100AF00090E09C8B8B8B2E853F8589859A85281766
:100B0000390709F0B2C02B893C8989859A85281755
:100B1000390709F4AAC08D819E8101969E838D8339
:100B20002F81388589819A81820F931F04969E8B2D
:100B30008D8B8D899E89FC0184918F8B8F89888F05
:100B40002F81388589819A81820F931F01969A8F10
:100B5000898F898D9A8DFC0184918B8F8B8D8C8FE1
:100B60001C821B8222C02F81388589819A81280F9F
:100B7000391F8B819C81820F931F05969E8F8D8FCD
:100B80008D8D9E8DFC0184918F8F8F8D482F9E01BE
:100B9000205D3F4F8B819C81820F931FFC0140831E
:100BA0008B819C8101969C838B838B819C810B978D
:100BB000D4F21BAE8C8D882F90E08130910589F0A6
:100BC00082309105D1F0892B21F58FE09CE2892FAD
:100BD0008F938FE09CE28F930E94EC080F900F9010
:100BE00024C083E19CE2892F8F9383E19CE28F9361
:100BF0000E94EC080F900F9018C087E19CE2892FAB
:100C00008F9387E19CE28F930E94EC080F900F90E6
:100C10000CC08BE19CE2892F8F938BE19CE28F9338
:100C20000E94EC080F900F900000888D882F90E0B4
:100C30009695982F8827979587959E01205D3F4F21
:100C4000432F4F932F93292F2F938F938FE19CE264
:100C5000892F8F938FE19CE28F930E94EC080F9075
:100C60000F900F900F900F900F9089819A8140966E
:100C70009A83898389819A818115944008F415CFDC
:100C80008DEC9BE2892F8F938DEC9BE28F930E94DA
:100C9000EC080F900F908E818F938D818F9388E257
:100CA0009CE2892F8F9388E29CE28F930E94EC084C
:100CB0000F900F900F900F9080E090E0ED960FB6A0
:100CC000F894DEBF0FBECDBFDF91CF910895CF93D3
:100CD000DF93CDB7DEB767970FB6F894DEBF0FBED0
:100CE000CDBF8F8B1A8219821C821B82CE01079680
:100CF000BC018F890E9471039C838B838B819C81B3
:100D0000892B81F080910601909107019C0141E2BD
:100D100050E061E070E085E39CE20E94BC088FEF48
:100D20009FEF16C08F81882F90E0805B9F4F969534
:100D3000982F8827979587959E838D838D819E8197
:100D4000969587959A83898389819A81FC01099573
:100D500067960FB6F894DEBF0FBECDBFDF91CF917F
:100D60000895CF93DF93CDB7DEB7CA56D1090FB63A
:100D7000F894DEBF0FBECDBF9E0129593F4FF90148
:100D800091838083CE0187599F4FFC0171836083DB
:100D90001A82198280910201909103010E94B5028A
:100DA000482F9E012D5F3F4F89819A81820F931FAB
:100DB000FC0140839E012D5F3F4F89819A81820F04
:100DC000931FFC0180818D30F1F04091040150911E
:100DD00005019E012D5F3F4F89819A81820F931FEC
:100DE000FC018081082E000C990BBA010E948C082E
:100DF00089819A8101969A83898389819A8184362F
:100E0000910540F201C00000CE0187599F4FFC01BF
:100E100021812F93FC0180818F93CE0189599F4FAF
:100E2000FC0121812F93FC0180818F93CE010396D9
:100E3000292F2F938F930E9411090F900F900F90DD
:100E40000F900F900F90C659DF4F0FB6F894DEBF8A
:100E50000FBECDBFDF91CF910895CF93DF9300D028
:100E600000D0CDB7DEB79C838B831A821982809124
:100E70000201909103010E94B502AC012B813C81DB
:100E800089819A81820F931F242FFC012083409136
:100E90000401509105012B813C8189819A81820F47
:100EA000931FFC018081082E000C990BBA010E944F
:100EB0008C082B813C8189819A81820F931FFC01D0
:100EC00080818D3011F12B813C8189819A81820F43
:100ED000931FFC0180818F3751F489819A81892B7E
:100EE00061F089819A8101979A83898306C08981FB
:100EF0009A8101969A83898301C0000089819A8131
:100F0000883C910508F4B3CF01C000008091040132
:100F100090910501BC018AE090E00E948C082B8131
:100F20003C8189819A81820F931FFC011082898103
:100F30009A810F900F900F900F90DF91CF910895AD
:100F40000C94D4070C9400020C9400020C94000240
:100F50000C9400020C9400020C9400020C94000209
:100F60000C9400020C9400020C9400020C940002F9
:100F70000C9400020C9400020C9400020C940002E9
:100F80000C9400020C9400020C9400020C940002D9
:100F90000C9400020C9400020C9400020C940002C9
:080FA0000C9400020C94000205
:0C0FA80011241FBECFEFD8E0DEBFCDBF8C
:080FB4000E9402020C941508D2
:100FBC002F923F924F925F926F927F928F929F925D
:100FCC00AF92BF92CF92DF92EF92FF920F931F934B
:100FDC00CF93DF93CDB7DEB7CA1BDB0B0FB6F894FC
:100FEC00DEBF0FBECDBF09942A88398848885F843C
:100FFC006E847D848C849B84AA84B984C884DF80AD
:10100C00EE80FD800C811B81AA81B981CE0FD11D90
:0E101C000FB6F894DEBF0FBECDBFED010895F4
:04102A00F894FFCF68
:10102E0011E0A0E0B1E0E0E0F1E002C005900D9229
:10103E00A030B107D9F721E0A0E0B1E001C01D92C8
:06104E00A230B207E1F739
:10105400FB01DC0105900D920020E1F7089540E0CA
:1010640051E00E9465080895FB01DC010D90002009
:10107400E9F7119701900D920020E1F70895FB0123
:10108400DC018D91019080190110D9F3990B089519
:10109400FB01DC0101900D920020E1F70895FC01B1
:1010A40001900020E9F7809590958E0F9F1F089579
:1010B400FC0181E090E00190061609F4CF010020C4
:1010C400D1F701970895FA01A191B081009719F41D
:1010D4001097E1F0CD01DC01CD010D90002011F459
:1010E400C00113C0FB012191222319F02015D9F767
:1010F400F3CFFB012191201519F41E92119606C01D
:101104002223C1F70D900020A1F7D001FA01A19389
:10111400B08308950F931F93CF93DF93182F092F54
:10112400EB018B8181FD09C01FEF0FEF812F902F01
:10113400DF91CF911F910F91089582FF14C02E81EA
:101144003F818C819D81281739073CF4E881F9811E
:10115400CF0101969983888310838E819F810196A4
:101164009F838E83E3CFE885F985812F0995892BA9
:10117400A1F3DACFB0E0A0E0E2ECF8E00C94E407ED
:101184005B014A017901D90113962C91D0E0C0E0AA
:1011940021FF1AC0C815D905B9F08C016C01CA0C1D
:1011A400DB1C0CC00F5F1F4FD7011896ED91FC910B
:1011B400B701DC018C910995892B31F4C8010C1518
:1011C4001D0581F72196E6CFCE01CDB7DEB7ECE061
:1011D4000C940008B0E0A0E0E2EFF8E00C94EC0717
:1011E400AE01495F5F4FDA016D917D91AD0102E07F
:1011F40011E0F80182819381DC0113962C911397FD
:10120400286013962C930E942A09D8011296ED9116
:10121400FC912381277F2383E4E00C940808AEE04B
:10122400B0E0E7E1F9E00C94EE078DE08C838B8964
:101234009C899A838983AE01495E5F4F6D897E895B
:10124400CE0101960E948F0C2E96E2E00C940A08BF
:10125400ABE0B0E0E0E3F9E00C94DE077C013B0195
:101264008A01FC0117821682838181FFC8C1CE01E5
:1012740001965C01F7019381F30193FD859193FF3E
:1012840081913F01882309F453C1853239F493FDD8
:10129400859193FF81913F01853229F4B70190E054
:1012A4000E948C08E7CF912C212C312CFFE1F315FF
:1012B40038F08B3211F190F4803209F1833229F144
:1012C40037FC3CC020ED280F2A3050F536FE20C0F4
:1012D4008AE0989E200D1124922E06C08D3291F042
:1012E400803371F7689430F8F30193FD859193FF8F
:1012F40081913F018111DACF21C0689431F868945B
:1013040032F8F2CF689433F8EFCF689434F8ECCF26
:10131400EAE02E9E200D1124222E689435F8E4CFA5
:101324008E3229F436FC04C1689436F8DDCF8C364D
:1013340019F4689437F8D8CF8836B1F2982F9F7D86
:1013440095549330E0F08336A1F18337C1F18335AE
:1013540009F063C02801F2E04F0E511CF801C0806F
:10136400D180692D70E036FC02C06FEF7FEFC601BB
:101374000E94A80D4C01689437F882010AC00C5FE2
:101384001F4FFFE3F98388248394912C6501E8942B
:1013940037F833FE2DC0522C8114910471F5552079
:1013A40009F468CFB70180E290E00E948C085A9457
:1013B400F6CFF801808189830E5F1F4FE4CF2801A7
:1013C400F2E04F0E511CF801C080D180692D70E00D
:1013D40036FC02C06FEF7FEFC6010E94B30D4C01D3
:1013E4008201D5CFB70180E290E00E948C082A9454
:1013F4002814190409F0B0F7CECFF60137FC859113
:1014040037FE81916F01B70190E00E948C08511062
:101414005A94F1E08F1A9108BFCF843619F08936B7
:1014240009F077C0F80137FE6BC060817181828159
:1014340093810C5F1F4FF32DFF763F2E97FF09C05A
:1014440090958095709561957F4F8F4F9F4F6894CD
:1014540037F82AE030E0A5010E94120EC82ECA18FF
:101464008C2C432C36FE0CC0E89440F8C91440F48C
:1014740034FE05C032FC03C0F32DFE7E4F2E892CB2
:1014840044FE95C0FE01EC0DF11D8081803309F00E
:1014940087C0242D297E422E842D8870582E43FC2B
:1014A40095C040FE8FC09C2C821418F42C0C922CF6
:1014B400981844FE91C0B70180E390E00E948C0824
:1014C40042FE09C088E790E041FE02C088E590E052
:1014D400B7010E948C08C91408F48AC0CA94D12C9C
:1014E4009FEFC91AD90ACA0CDB1CF60182916F015D
:1014F400B70190E00E948C08AC14BD04B1F74FCF43
:1015040060817181072E000C880B990B0E5F1F4FB1
:1015140092CFD32CE894D4F82AE030E0853739F11F
:10152400232D297FD22E8F3601F148F48835A9F076
:10153400F701868197812B96E2E10C94FA078037B4
:1015440049F08837A9F7D4FE02C06894D2F820E1A4
:1015540030E00DC06894D4F8F6CF34FE03C0822F77
:101564008660D82E20E132E002C028E030E0F801A5
:10157400D7FE0FC060817181828193810C5F1F4F00
:10158400A5010E94120EC82ECA183D2CE89437F803
:1015940067CF6081718190E080E00E5F1F4FF0CFD4
:1015A40042FC02C0839478CF8394839475CF842DB6
:1015B400867809F471CFF6CFB70180E290E00E94FB
:1015C4008C0883948214C0F3512C73CF522C581876
:1015D400821408F46ECFF8CF842D867809F47BCF7B
:1015E4008BE241FE80E247FC8DE2B70190E071CFCF
:1015F400B70180E390E00E948C089A946CCF8FEF3F
:101604009FEF99CF20FD09C0FC0123FD05C022FFF7
:1016140002C07383628351834083089544FD17C0DD
:1016240046FD1DC0DB01FC01AA0FBB1FEE1FFF1FFF
:101634001094D1F76A0F7B1F8E1F9F1F660F771FB1
:10164400881F991F620F711D811D911D089533E03C
:10165400660F771F881F991F3150D1F7F3CF34E0FD
:10166400F7CF0F931F93CF93DF938C01C8010E9490
:10167400BE0DEC0197FD08C00E94940D892BB1F7B3
:10168400B801CE010E94FA0DCE01DF91CF911F91D6
:101694000F9108958F929F92AF92BF92EF92FF9213
:1016A4000F931F93CF93DF938C01D62F7A01B22E21
:1016B4000E94BE0D9C0133272B32310529F02D32B7
:1016C4003105A9F46894B7F8D15061F480E0DF9152
:1016D400CF911F910F91FF90EF90BF90AF909F908B
:1016E4008F900895C8010E94BE0D97FDEFCFCB2DBA
:1016F400CD7F2B2D2073F9F48033E9F4AA24AA9426
:10170400AD0E89F0C8010E94BE0D97FD0CC0282FB4
:101714002F7D283561F4C264D25029F0C8010E949B
:10172400BE0D97FF08C0812C912C54011BC0B6FE3E
:101734002BC0C260DA2D812C912C540120ED280F8E
:10174400283028F1C4FD09C02A3008F1C6FF05C0BD
:101754002F7D3FEE320F3630C8F0B8010E94FA0DEB
:10176400C1FFB4CFC7FF08C0B094A09490948094F4
:10177400811C911CA11CB11C2C2FB501A401C70113
:101784000E94040B81E0A3CFC261D4CF27504C2F19
:10179400C501B4010E94100B4B015C01C260D15021
:1017A40009F3C8010E94BE0D97FFC8CFD9CFA0E2AC
:1017B400B0E0EFEDFBE00C94E3075C01962E7A01B8
:1017C400CE0101966C0180E2F60111928A95E9F747
:1017D400F501B381890130E020E0712C812CA0E077
:1017E40041E050E0F801B3FD8591B3FF8191982F5A
:1017F4008F01811107C010E000E0C801A096EDE060
:101804000C94FF078E3519F42115310541F1A21707
:1018140013064CF48D3549F18D3229F4811006C03C
:10182400882483941DC0882009F464C0E92FE695B8
:10183400E695E695EC0DFD2DF11D892F8770BA0113
:1018440001C0660F8A95EAF78081682B6083791658
:1018540051F0971510F49F5FE9CF9150E7CFA1E0C5
:101864002F5F3F4FBFCF812CFBCF882019F08E8193
:1018740080628E83AA2359F0F6019E012F5D3F4FAB
:101884008081809580833196E217F307C9F7882415
:101894008394C5010E94BE0D97FD16C0E82FE695FE
:1018A400E695E695EC0DFD2DF11D208130E0AC01AF
:1018B4004770552702C0359527954A95E2F720FDD4
:1018C40006C0B5010E94FA0D882069F094CFE11496
:1018D400F10429F0F7018083C70101967C019A94F1
:1018E400812C9110D6CFE114F10409F486CFF701CD
:1018F400108283CFE82FE695E695E695EC0DFD2D55
:10190400F11D982F9770BA0101C0660F9A95EAF7F6
:101914009081692B6083782EA3CFB0E0A0E0E5E945
:10192400FCE00C94E1076C01EB015A01FC01178205
:101934001682512CF601E380FE01E3FC8591E3FE5F
:101944008191182FEF018823E9F090E00E94940D13
:10195400892B21F0C6010E94330BECCF153241F4E0
:10196400FE01E3FC1591E3FE1191EF01153269F4D8
:10197400C6010E94BE0D97FD8EC01817D9F2B6019C
:101984000E94FA0D852D90E08AC000E01A3231F4ED
:10199400E3FC1591E3FE1191EF0101E0F12C20ED40
:1019A400210F2A3048F101FF37C0FF2059F31836C0
:1019B400B1F11C3609F43DC0112321F3612F70E00D
:1019C40084EB9CE20E949D0D892BE1F2912C812CE9
:1019D40000FD06C0F50180809180C50102965C017E
:1019E4001E3679F5F6014681578170E060E0202FBC
:1019F400C4010E94040B9ECF02606F2D70E090E042
:101A040080E040E20E94100BF62EFE01E3FC1591EB
:101A1400E3FE1191EF01C3CFFF24FA94C8CFFE0176
:101A2400E3FC1591E3FE1191EF01183609F0C4CFE0
:101A340008600460FE01E3FC1591E3FE1191EF01DF
:101A4400BBCF1336C1F401FD02C0FF24F394C601D9
:101A54000E94BE0D97FD1FC08114910429F0F4016A
:101A64008083C40101964C01FA94F110F0CF00FD7B
:101A740061CF53945FCF1B35B9F49E01A4016F2D40
:101A8400C6010E94D90BEC01892B89F7F6018381E9
:101A9400807309F477CF8FEF9FEF511073CFCDB7D9
:101AA400DEB7EFE00C94FD07C6010E94330B97FDEF
:101AB400F2CF1F36A9F130F4143641F0193639F05B
:101AC400006405C01337B9F01537D1F70062202F31
:101AD400A4016F2DC6010E944C0B8111C8CFD6CF33
:101AE4008114910429F0F4016082C40101964C012F
:101AF400FA94FF2071F0C6010E94BE0D3C0197FDCF
:101B040008C00E94940D892B59F3B601C3010E94A9
:101B1400FA0D8114910409F4AACFF4011082A7CF1D
:101B24000061D5CF91110C94700E803219F0895058
:101B34008550C8F70895FC010590061621F0002091
:101B4400D9F7C00108953197CF010895FC0105909C
:101B5400615070400110D8F7809590958E0F9F1FAB
:101B64000895FC016150704001900110D8F78095F0
:101B740090958E0F9F1F0895CF93DF93EC012B81D7
:101B840020FF1AC026FF0CC02F7B2B838E819F81E0
:101B940001969F838E838A8190E0DF91CF9108958F
:101BA40022FF18C0E881F9818081082E000C990B6E
:101BB400009729F420622B838FEF9FEFEECF3196AD
:101BC400F983E8832E813F812F5F3F4F3F832E832C
:101BD4009927E3CFEA85FB85099597FFF3CF2B81FE
:101BE400019621F080E2822B8B83E6CF80E1FBCF4C
:101BF400FB01238120FF11C026FD0FC08F3F9807F2
:101C040071F082832F7D20642383268137812150C4
:101C1400310937832683992708958FEF9FEF08951D
:101C2400FA01AA27283051F1203181F1E8946F9309
:101C34006E7F6E5F7F4F8F4F9F4FAF4FB1E03ED0AF
:101C4400B4E03CD0670F781F891F9A1FA11D680F4D
:101C5400791F8A1F911DA11D6A0F711D811D911D80
:101C6400A11D20D009F468943F912AE0269F1124F5
:101C74003019305D3193DEF6CF010895462F477059
:101C8400405D4193B3E00FD0C9F7F6CF462F4F70B4
:101C9400405D4A3318F0495D31FD4052419302D012
:101CA400A9F7EACFB4E0A6959795879577956795B8
:101CB400BA95C9F700976105710508959B01AC01B8
:101CC4000A2E06945795479537952795BA95C9F7DF
:101CD400620F731F841F951FA01D089599278827DD
:101CE4000895F999FECF92BD81BDF89A992780B5E0
:101CF4000895DC01CB0103C02D910E94860E415052
:101D04005040D0F70895262FF999FECF1FBA92BDFF
:101D140081BD20BD0FB6F894FA9AF99A0FBE0196C8
:021D2400089520
:101D2600CF93DF9300D01F92CDB7DEB789837B8335
:101D36006A838981882F90E08330910501F1843090
:101D4600910534F48130910561F0029779F049C02C
:101D56008630910569F188309105B1F00597D9F083
:101D660040C00E946D0280E090E03DC08A819B8168
:101D7600FC0180810E94990280E090E034C080E0FE
:101D860090E00E94B5022FC08A819B81FC01808170
:101D96000E94670628C08A819B819C012F5F3F4F66
:101DA6008A819B81FC018081B9010E9471031BC05D
:101DB6008A819B81FC018081918104962A813B81E5
:101DC600A901480F591F8A819B819C012C5F3F4FB7
:101DD6008A819B81FC0180819181B9010E94E70380
:101DE60002C08FEF9FEF0F900F900F90DF91CF9172
:021DF60008954E
:10280000CF93DF93CDB7DEB785E99CE2892F8F9315
:1028100085E99CE28F930E94EC080F900F9080E076
:0828200090E0DF91CF910895D3
:10282800CF93DF93CDB7DEB7CD5AD2400FB6F89429
:10283800DEBF0FBECDBF9E0124553D4FF9019183E8
:1028480080831E821D82CE018F589D4F20E230E08A
:10285800FC0131832083CE018D589D4F2FE230E05B
:10286800FC01318320831C821B82CE018B589D4F33
:1028780023E634E6FC0131832083FC011282CE0179
:102888008B589D4F0B962EE23EE2FC01318320834C
:10289800FC011282CE018B589D4F46962CE633E7F9
:1028A800FC0131832083FC011282198ECE018F51E5
:1028B8009F4F2FE230E0FC0131832083CE018F51FE
:1028C8009F4F292F2F938F93CE0184559D4FFC0145
:1028D80021812F93FC0180818F9387E59CE2892FCA
:1028E8008F9387E59CE28F930E94EC080F900F90DE
:1028F8000F900F900F900F90CE0149960E942D07D0
:102908009E012F583D4FCE014996B9010E943108CA
:102918009E838D832D813E81CE018B589D4FB901B9
:102928000E944108892B09F0AAC08D819E81892BBC
:1029380009F4A5C0CE018F589D4FBC0180E090E0FE
:102948000E9431089E838D838D819E81892B09F495
:10295800E3C02D813E81CE018B589D4F0B96B90166
:102968000E944108892B09F04EC0CE018F519F4F1C
:102978000E945108029708F446C01C821B82CE01AF
:102988008D589D4FFC018081282F880F330BCE0175
:102998008F519F4FB9010E945A089A838983898170
:1029A8009A8101979A83898310C08B819C810196B3
:1029B8009C838B8389819A81FC0180818F3271F09D
:1029C80089819A8101979A838983CE018F519F4F7C
:1029D80029813A812817390740F701C00000CE0144
:1029E8008F519F4F0E9451089C018B819C81A901A6
:1029F800481B590BCA019E012F513F4F820F931F4D
:102A0800FC0110828CC09E012F513F4FCE0187558B
:102A18009E4FB9010E944A082D813E81CE018755FB
:102A28009E4FB9010E9436089E012D583D4FCE0198
:102A380087559E4FB9010E943608CE0187559E4F93
:102A48000E945108FC019E01275F3F4FCE01875528
:102A58009E4FA901BC01CF010E94E70398878F838D
:102A68008F819885019609F459C09E0127553E4FDC
:102A7800CE018F519F4FB9010E944A0841C02D8154
:102A88003E81CE018B589D4F4696B9010E94410860
:102A9800892B31F4CE018F519F4F0E94F20430C030
:102AA8008D819E810E945108FC019E01275F3F4F46
:102AB8008D819E81A901BC01CF010E94E7039887FF
:102AC8008F832F81CE010996BC01822F0E9471034A
:102AD8008A85882321F48F810E94670611C08E8120
:102AE8008F938D818F938FE59CE2892F8F938FE54C
:102AF8009CE28F930E94EC080F900F900F900F901C
:102B080082E99CE2892F8F9382E99CE28F930E944D
:102B1800EC080F900F90D2CE0000D0CE0000CECEA1
:102B28004D434F53207665722E20312E302E300AB9
:102B38000D00494E464F3A2053797374656D2072E3
:102B480065616479210A0D004552524F523A20437B
:102B5800616E6E6F7420637265617465206469725A
:102B68006563746F7279206F662073697A65206770
:102B7800726561746572207468616E203021004549
:102B880052524F523A2043616E6E6F7420637265E1
:102B9800617465207370616365206F66206D6F7264
:102BA80065207468616E2061203130302070616763
:102BB80065732100747970650973697A65096E61B6
:102BC8006D650A0D002D2D2D2D2D2D2D2D2D2D2D25
:102BD8002D2D2D2D2D2D2D2D2D2D2D2D2D2D2D2D1D
:102BE8002D2D2D2D2D2D2D2D2D2D2D2D2D0A0D007D
:102BF800202D09253464092E0A0D00202D092534BD
:102C080064092E2E0A0D0020650900207209002093
:102C1800640900202D09002534640925730A0D0074
:102C28004974656D733A202532640A0D0045525285
:102C38004F523A20556E61626C6520746F206C6F3C
:102C480063617465207468652066696C652E00256B
:102C5800733A257324200027257327206973206E73
:102C6800656974686572206120636F6D6D616E645B
:102C7800206F7220616E2065786563757461626C7F
:102C8800652066696C652E0A0D000A0D0048656CA2
:102C98006C6F2066726F6D2074686520746573743C
:0C2CA8002070726F6772616D210A0D00D0
:0C2CB4006364696E6F70737578585B0084
:00000001FF
